:100000000C9434000C9449000C9449000C94490061
:100010000C9449000C9449000C9449000C9449003C
:100020000C9449000C9449000C9449000C944B002A
:100030000C9449000C9449000C9449000C9449001C
:100040000C9449000C9449000C9449000C9449000C
:100050000C9449000C9449000C9449000C944900FC
:100060000C9449000C94490011241FBECFEFD8E036
:10007000DEBFCDBF11E0A0E0B1E0E0E8F1E002C0FA
:1000800005900D92A034B107D9F70E9473000C942B
:10009000BE000C9400001F920F920FB60F92112415
:1000A0008F939F9385B191E0892785B99F918F9117
:1000B0000F900FBE0F901F9018957894209AE1E84A
:1000C000F0E080818860808388E09DE390938900E0
:1000D00080938800AFE6B0E08C9182608C93808141
:1000E0008360808308950E948C0080E091E00E94EC
:1000F000AB0088E191E00E94AB008DE191E00E94AD
:10010000AB000E94A4008823E1F38EE291E00E94FC
:10011000AB000E945D00FFCF1092C5008CE0809381
:10012000C400E0ECF0E080818260808388E180930D
:10013000C10086E08093C20008959091C00095FFB1
:10014000FCCF8093C60008958091C00087FFFCCF4C
:100150008091C60008950F931F93CF938C01C0E048
:10016000F801EC0FF11D8081811104C0CF911F9126
:100170000F9108950E949D00CF5FF2CFF894FFCFBA
:100180000A0A5375626D6172696E6520436F6E7401
:10019000726F6C6C65720A0076302E31000A5072F4
:1001A00065737320616E79206B65793A0A00537428
:1001B000617274696E672050726F6772616D0A00B8
:00000001FF
