:100000000C9434000C9451000C9451000C94510049
:100010000C9451000C9451000C9451000C9451001C
:100020000C9451000C9451000C9451000C948802D3
:100030000C9451000C9451000C9451000C945100FC
:100040000C9451000C9451000C9451000C945100EC
:100050000C9451000C9451000C9451000C945100DC
:100060000C9451000C94510011241FBECFEFD8E026
:10007000DEBFCDBF11E0A0E0B1E0E8E9F9E002C0E9
:1000800005900D92AC36B107D9F721E0ACE6B1E0AE
:1000900001C01D92AA37B207E1F70E94D6020C9464
:1000A000CA040C940000CF92DF92EF92FF92F82ED8
:1000B0008CEE0E9449038F2D0E946B030E94BA03AD
:1000C0008FE39CE90197F1F700C000008CEE0E94DD
:1000D000490380E00E946B030E94BA038DEE0E94E8
:1000E00049030E947C0390E0B0E0A0E0CC24D82E2D
:1000F000E92EFA2E0E947C03C82AFE2CED2CDC2C63
:10010000CC240E948603C82A0E94BA03C701B60104
:10011000FF90EF90DF90CF9008952F923F924F92F3
:100120005F926F927F928F929F92AF92BF92CF9287
:10013000DF92EF92FF920F931F93CF93DF93CDB790
:10014000DEB72A970FB6F894DEBF0FBECDBF9987F2
:1001500088878AE40E9453002B013C018AE50E94B3
:100160005300AB01BC01A885B9851A968D919C916D
:10017000B0E0A0E0BA2FA92F982F88278A019B0111
:10018000081B190B2A0B3B0B09831A832B833C8317
:10019000A885B98516966D917C9190E080E0A901C3
:1001A00098010E942104F22E032F142FB52FF62F51
:1001B000E72FD82EE92EA0E00E94AF0484F421504E
:1001C0003F4F4F4F5F4F6F4F7F4F8F4F9F4FF22EDD
:1001D000032F142FB52FF62FE72FD82EE92E2F2D12
:1001E000302F412F5B2F6F2F7E2F8D2D9E2D08E0FE
:1001F0000E94740419014A01B62FA72F8D839E8394
:10020000E885F985A280B380D12CC12C9501A60187
:1002100060E070E080E090E00FE00E945B04590134
:100220006A017B018C019101A4016B2F7A2F8D81D2
:100230009E810E949104120151016301E12CF12C75
:1002400000E010E00E94C903F22E032F142FB52FF7
:10025000F62FE72FD82EE92EA0E00E94AF0484F4F9
:1002600021503109404E5F4F6F4F7F4F8F4F9F4F4F
:10027000F22E032F142FB52FF62FE72FD82EE92EAD
:100280002F2D302F412F5B2F6F2F7E2F8D2D9E2DE9
:1002900005E10E94740429013A01962E872E382E1A
:1002A000292EA885B98518966D917C9190E080E003
:1002B00029813A814B815C810E942104F22E032F17
:1002C000142FB52FF62FE72FD82EE92EA0E00E948D
:1002D000AF045CF4AFE70E949A04F22E032F142FB0
:1002E000B52FF62FE72FD82EE92E2F2D302F412FA7
:1002F0005B2F6F2F7E2F8D2D9E2D07E00E947404A3
:100300002983D32EE42E5D836E837F83F82FE92F1C
:10031000A885B98514964D915C919A0140E050E012
:1003200060E070E080E090E000E10E945B04590131
:10033000C42E5A876887F72E8C0129813D2D4E2DBA
:100340005D816E817F818F2F9E2FDA84E8840E94E9
:10035000910459016A017B018C019201A301692D6D
:10036000782D832D922D0E94A604122F3D83498360
:10037000B52FF62FE72FF82E092FA0E00E94AF042B
:1003800084F42150304E4F4F5F4F6F4F7F4F8F4F50
:100390009F4F122F3D834983B52FF62FE72FF82E5D
:1003A000092F212F3D8149815B2F6F2F7E2F8F2DAC
:1003B000902F0DE00E947404AAE0B0E00E94BE03FA
:1003C0000E942D0360E070E0CB012A960FB6F894EE
:1003D000DEBF0FBECDBFDF91CF911F910F91FF9078
:1003E000EF90DF90CF90BF90AF909F908F907F90D5
:1003F0006F905F904F903F902F900895DC018D910A
:100400009C9111979F7011969C938E931F961C92AE
:100410001E921E9790E030E020E0E92FE695F0E094
:10042000EE0FFF1FEA0FFB1F6081818190FF12C05A
:10043000262788E0B901220F331F77FF02C060E34F
:1004400036278150B9F79F5F903139F7832F829516
:100450008F70089550E028273527EBCFEF92FF9259
:100460000F931F93CF93DF937C010E94450341E0DC
:1004700050E06EE170E08CEE0E9490038FE19EE40C
:100480000197F1F700C0000080E091E00E940503B1
:10049000E70110EA8CEE0E944903812F0E946B0352
:1004A0000E94BA038DEE0E9449030E947C03082F2C
:1004B0000E948603902F998388830E94BA038981C2
:1004C0000E941E0388810E941E031E5F22961E3A10
:1004D00009F783E191E00E940503F701C181C2950C
:1004E000CF70C7010E94FE01C8130CC080E291E0EA
:1004F0000E94050381E0DF91CF911F910F91FF9042
:10050000EF90089586E291E00E94050380E0F3CF2A
:100510001F920F920FB60F9211248F939F93289AD8
:100520008FEC97E00197F1F700C0000028989F91A9
:100530008F910F900FBE0F901F901895209A289AB8
:100540000E94E6028CE291E00E94050384E491E0BF
:100550000E94050389E491E00E9405030E94FE02C7
:100560008AE591E00E94050328980895559A83E250
:1005700084BD8BE085BD8DE787BD82E088BD089591
:10058000F894E1E8F0E08081846080838081886075
:100590008083EFE6F0E08081826080838EE39AE7DB
:1005A00090938900809388007894089578940E94AD
:1005B0009E020E94C0020E94B6028CE691E00E9458
:1005C0002E028CE691E00E948D00FFCF1092C500B4
:1005D00083E38093C400E0ECF0E080818D7F808332
:1005E00088E18093C10086E08093C20008959091D5
:1005F000C00095FFFCCF8093C60008958091C00095
:1006000087FFFCCF8091C60008950F931F93CF936F
:100610008C01C0E0F801EC0FF11D8081811104C054
:10062000CF911F910F9108950E94F702CF5FF2CFF3
:100630008A3010F4805D0895895C0895CF93C82FA7
:1006400082958F700E9418030E94F7028C2F8F7082
:100650000E941803CF910C94F7021F93CF93DF935E
:10066000EB01182F892F0E941E03812F0E941E0369
:100670008D2F0E941E038C2F0E941E0388E591E09F
:10068000DF91CF911F910C94050380E28093B80015
:1006900008951092BC0094EA9093BC009091BC0025
:1006A00097FFFCCF9091B900987F983011F081E0CE
:1006B00008958093BB0084E88093BC008091BC00C7
:1006C00087FFFCCF8091B900887F883111F080349A
:1006D00071F780E008958093BB0084E88093BC00AC
:1006E0008091BC0087FFFCCF9091B900987F81E09A
:1006F000983209F480E0089584EC8093BC008091E6
:10070000BC0087FFFCCF8091BB00089584E88093F4
:10071000BC008091BC0087FFFCCF8091BB00089596
:10072000DF92EF92FF920F931F93CF93DF93D62E1A
:10073000072F7A010E944903182F882351F011E0F6
:10074000812FDF91CF911F910F91FF90EF90DF905C
:100750000895CD2DD02FEC0EFD1ECE15DF0521F412
:1007600084E98093BC00ECCF89910E946B038823BD
:10077000A1F3E5CF84E98093BC0008950E94BB04F7
:10078000A59F900DB49F900DA49F800D911D1124E5
:100790000895DF93CF931F930F939A9DF02D219F80
:1007A000F00D8B9DF00D8A9DE02DF10D039FF00D56
:1007B000029FE00DF11D4E9DE00DF11D5E9DF00DBF
:1007C0004F9DF00D7F936F93BF92AF925F934F93C6
:1007D000D5010E94BB048B01AC01D7010E94BB0470
:1007E000EB01E80FF91FD6010E9418042F913F91E9
:1007F000D6010E94BB04C60FD71FE81FF91FAF9197
:10080000BF910E9418042F913F910E94BB04C60F14
:10081000D71FE81FF91FD6010E94BB04E60FF71F80
:100820009801BE01CF010F911F91CF91DF910895E3
:100830000E94BB04460F571FC81FD91F08F43196EA
:10084000089597FB57FF0C9431049F938F930E9458
:1008500031046E1B7F0BAF91BF918A0B9B0B0895E8
:10086000E894DF93CF93FC01DB010E94BB047F93EC
:100870006F93E9019A01AC01BF93AF933F932F931C
:10088000DF010E94BB0426F46C1B7D0B820B930BD3
:100890009E01EB01FC010E941804AF91BF912F91C2
:1008A0003F910E941804BE01CF01F9012F913F91A1
:1008B000CF91DF910895002E083090F0982F872F68
:1008C000762F652F542F432F322F22270850F4CF35
:1008D000220F331F441F551F661F771F881F991F44
:1008E0000A95B2F7002D089597FD1094002E083058
:1008F00098F00850232F342F452F562F672F782F2D
:10090000892F912DF4CF15949795879577956795B5
:1009100057954795379527950A95AAF71124002DE5
:1009200008952A0D3B1D4C1D5D1D6E1D7F1D801FF2
:10093000911F08950024A7FD00942A0F301D401D2B
:10094000501D601D701D801D901D08952A193B09C2
:100950004C095D096E097F09800B910B08950024F5
:10096000A7FD00942A173005400550056005700565
:10097000800590050895A29FB001B39FC001A39F79
:10098000700D811D1124911DB29F700D811D1124C8
:08099000911D0895F894FFCFBA
:1009980043616C6962726174696F6E20446174614D
:1009A8003A20000A43524320436865636B3A2000AB
:1009B800476F6F640A00204261640A000A0A53758F
:1009C800626D6172696E6520436F6E74726F6C6CD4
:1009D80065720A0076302E31000A507265737320F2
:1009E800616E79206B65793A0A0053746172746993
:0C09F8006E672050726F6772616D0A001C
:00000001FF
