:100000000C9434000C9451000C9451000C94510049
:100010000C9451000C9451000C9451000C9451001C
:100020000C9451000C9451000C9451000C94DD0080
:100030000C9451000C9451000C9451000C945100FC
:100040000C9451000C9451000C9451000C945100EC
:100050000C9451000C9451000C9451000C945100DC
:100060000C9451000C94510011241FBECFEFD8E026
:10007000DEBFCDBF11E0A0E0B1E0E2E7F6E002C0F4
:1000800005900D92AA36B107D9F721E0AAE6B1E0B2
:1000900001C01D92A937B207E1F70E9411010C942B
:1000A00037030C940000DC018D919C9111979F7097
:1000B00011969C938E931F961C921E921E9790E011
:1000C00030E020E0E92FE695F0E0EE0FFF1FEA0FA9
:1000D000FB1F6081818190FF12C0262788E0B90153
:1000E000220F331F77FF02C060E336278150B9F734
:1000F0009F5F903139F7832F82958F70089550E07C
:1001000028273527EBCFEF92FF920F931F93CF93C2
:10011000DF937C010E94940141E050E06EE170E0C9
:100120008CEE0E94DF0183EC99E00197F1F700C0AB
:10013000000080E091E00E944901E70110EA8CEEA6
:100140000E949801812F0E94BA010E9409028DEE3F
:100150000E9498010E94CB01082F0E94D501902F88
:10016000998388830E94090289810E9462018881A3
:100170000E9462011E5F22961E3A09F783E191E018
:100180000E944901F701C181C295CF70C7010E9449
:100190005300C8130CC080E291E00E94490181E045
:1001A000DF91CF911F910F91FF90EF90089584E21E
:1001B00091E00E94490180E0F3CF1F920F920FB6A9
:1001C0000F9211248F939F9385B191E0892785B970
:1001D00089B1882359F080917900869588BD9F91D7
:1001E0008F910F900FBE0F901F90189580916A010C
:1001F000F5CF209A289A0E942A0189E291E00E9474
:10020000490181E491E00E94490186E491E00E9465
:1002100049010E94420187E591E00E944901289826
:1002200008950E94F9008BE691E00E9483000E94ED
:100230007101682F70E090E080E00E943E022AE0A9
:1002400037ED43EA5FE30E94A2020E940D02609331
:100250006A01EDCF1092C5008CE08093C400E0EC01
:10026000F0E080818260808388E18093C10086E035
:100270008093C20008959091C00095FFFCCF8093B9
:10028000C60008958091C00087FFFCCF8091C60012
:1002900008950F931F93CF938C01C0E0F801EC0FEA
:1002A000F11D8081811104C0CF911F910F9108959C
:1002B0000E943B01CF5FF2CF8A3010F4805D089539
:1002C000895C0895CF93C82F82958F700E945C013E
:1002D0000E943B018C2F8F700E945C01CF910C9487
:1002E0003B010F931F93CF93DF93C0E3D0E310E361
:1002F0000E944201082F0E943B010D3089F41053E7
:1003000080ED8C0F94E6199F800D1124D0539AE054
:10031000D99F800D1124DF91CF911F910F910895E6
:100320001D2FDC2FC02FE4CF8DEF8093B8000895F0
:100330001092BC0094EA9093BC009091BC0097FF8F
:10034000FCCF9091B900987F983011F081E008952A
:100350008093BB0084E88093BC008091BC0087FF41
:10036000FCCF8091B900887F883111F0803471F71B
:1003700080E008958093BB0084E88093BC00809166
:10038000BC0087FFFCCF9091B900987F81E0983244
:1003900009F480E0089584EC8093BC008091BC0057
:1003A00087FFFCCF8091BB00089584E88093BC0058
:1003B0008091BC0087FFFCCF8091BB000895DF9245
:1003C000EF92FF920F931F93CF93DF93D62E072FB9
:1003D0007A010E949801182F882351F011E0812F93
:1003E000DF91CF911F910F91FF90EF90DF900895D3
:1003F000CD2DD02FEC0EFD1ECE15DF0521F484E9A6
:100400008093BC00ECCF89910E94BA018823A1F3AC
:10041000E5CF84E98093BC0008950E94810288F0B2
:100420009F5798F0B92F9927B751B0F0E1F0660FB8
:10043000771F881F991F1AF0BA95C9F714C0B130F9
:1004400091F00E949B02B1E008950C949B02672FEB
:10045000782F8827B85F39F0B93FCCF38695779528
:100460006795B395D9F73EF4909580957095619511
:100470007F4F8F4F9F4F0895E89409C097FB3EF43C
:1004800090958095709561957F4F8F4F9F4F9923E1
:10049000A9F0F92F96E9BB279395F695879577955F
:1004A0006795B795F111F8CFFAF4BB0F11F460FF1F
:1004B0001BC06F5F7F4F8F4F9F4F16C0882311F077
:1004C00096E911C0772321F09EE8872F762F05C08B
:1004D000662371F096E8862F70E060E02AF09A9526
:1004E000660F771F881FDAF7880F9695879597F91B
:1004F000089557FD9058440F551F59F05F3F71F014
:100500004795880F97FB991F61F09F3F79F087957A
:100510000895121613061406551FF2CF4695F1DF03
:1005200008C0161617061806991FF1CF8695710593
:10053000610508940895E894BB2766277727CB01C7
:1005400097F908950E94B5020C9426030E9418039F
:1005500038F00E941F0320F0952311F00C940F0334
:100560000C94150311240C949C020E94790270F3E0
:10057000959FC1F3950F50E0551F629FF001729F48
:10058000BB27F00DB11D639FAA27F00DB11DAA1F57
:10059000649F6627B00DA11D661F829F2227B00DA4
:1005A000A11D621F739FB00DA11D621F839FA00D2F
:1005B000611D221F749F3327A00D611D231F849F7F
:1005C000600D211D822F762F6A2F11249F575040D6
:1005D0009AF0F1F088234AF0EE0FFF1FBB1F661F51
:1005E000771F881F91505040A9F79E3F510580F01A
:1005F0000C940F030C949C025F3FE4F3983ED4F3F9
:10060000869577956795B795F795E7959F5FC1F7BD
:10061000FE2B880F911D9695879597F9089597F968
:100620009F6780E870E060E008959FEF80EC089598
:1006300000240A94161617061806090608950024C1
:100640000A9412161306140605060895092E03943B
:10065000000C11F4882352F0BB0F40F4BF2B11F4AF
:1006600060FF04C06F5F7F4F8F4F9F4F0895F894D6
:02067000FFCFBA
:1006720043616C6962726174696F6E204461746176
:100682003A20000A43524320436865636B3A2000D4
:100692003A290A00203A280A000A0A5375626D6153
:1006A20072696E6520436F6E74726F6C6C65720A4C
:1006B2000076302E31000A507265737320616E79B4
:1006C200206B65793A0A005374617274696E67200F
:0A06D20050726F6772616D0A00003C
:00000001FF
