:100000000C9434000C94EF000C9451000C945100AB
:100010000C9451000C9451000C9451000C94DD0090
:100020000C9451000C9451000C9451000C9451000C
:100030000C9451000C9451000C9451000C945100FC
:100040000C9451000C9451000C9451000C945100EC
:100050000C9451000C9451000C9451000C945100DC
:100060000C9451000C94510011241FBECFEFD8E026
:10007000DEBFCDBF11E0A0E0B1E0E8EAF7E002C0EA
:1000800005900D92AA37B107D9F721E0AAE7B1E0B0
:1000900001C01D92A938B207E1F70E9458010C94E3
:1000A000D2030C940000DC018D919C9111979F70FC
:1000B00011969C938E931F961C921E921E9790E011
:1000C00030E020E0E92FE695F0E0EE0FFF1FEA0FA9
:1000D000FB1F6081818190FF12C0262788E0B90153
:1000E000220F331F77FF02C060E336278150B9F734
:1000F0009F5F903139F7832F82958F70089550E07C
:1001000028273527EBCFEF92FF920F931F93CF93C2
:10011000DF937C010E941B0241E050E06EE170E041
:100120008CEE0E94660283EC99E00197F1F700C023
:10013000000080E091E00E949501E70110EA8CEE5A
:100140000E941F02812F0E9441020E9490028DEEA8
:100150000E941F020E945202082F0E945C02902FF0
:10016000998388830E94900289810E94E901888195
:100170000E94E9011E5F22961E3A09F783E191E091
:100180000E949501F701C181C295CF70C7010E94FD
:100190005300C8130CC080E291E00E94950181E0F9
:1001A000DF91CF911F910F91FF90EF90089584E21E
:1001B00091E00E94950180E0F3CF1F920F920FB65D
:1001C0000F9211248F939F9385B191E0892785B970
:1001D0009F918F910F900FBE0F901F9018951F92B7
:1001E0000F920FB60F9211242F933F934F935F936B
:1001F0006F937F938F939F93AF93BF93EF93FF93EF
:1002000089E291E00E949501A5E8B0E09C91E4E8C4
:10021000F0E080811C9210820E94A80187E291E0A8
:100220000E949501FF91EF91BF91AF919F918F91A6
:100230007F916F915F914F913F912F910F900FBEE2
:100240000F901F901895209A289A0E94760189E3B2
:1002500091E00E94950181E591E00E94950186E57B
:1002600091E00E9495010E948E0187E691E00E9434
:10027000950128980895F894E1EBF0E0808188607A
:1002800080838FEF8093B300A0E7B0E08C91826011
:100290008C9380818760808378940895559A83E257
:1002A00084BD8BE085BD8DE787BD82E088BD089564
:1002B00078940E9423010E943B010E944E018BE72B
:1002C00091E00E9483000E94F801682F70E090E0A6
:1002D00080E00E94D9022AE037ED43EA5FE30E9402
:1002E0003D030E94A80260937A01EDCF1092C500F1
:1002F00083E38093C400E0ECF0E080818D7F808315
:1003000088E18093C10086E08093C20008959091B7
:10031000C00095FFFCCF8093C60008958091C00077
:1003200087FFFCCF8091C60008950F931F93CF9352
:100330008C01C0E0F801EC0FF11D8081811104C037
:10034000CF911F910F9108950E948701CF5FF2CF47
:100350000F931F93CF93DF938C0160E177E20E94AC
:10036000940280E3860F0E948701C80168EE73E063
:100370000E949402CB01CAE0D0E0BE010E94940228
:10038000805D0E948701C80164E670E00E949402CB
:10039000CB01BE010E949402805D0E948701C801CA
:1003A000BE010E949402182FCB01BE010E9494024C
:1003B000805D0E94870180E3810FDF91CF911F91C3
:1003C0000F910C9487018A3010F4805D0895895C48
:1003D0000895CF93C82F82958F700E94E3010E94E9
:1003E00087018C2F8F700E94E301CF910C948701BD
:1003F0000F931F93CF93DF93C0E3D0E310E30E94EA
:100400008E01082F0E9487010D3089F4105380ED72
:100410008C0F94E6199F800D1124D0539AE0D99F38
:10042000800D1124DF91CF911F910F9108951D2F01
:10043000DC2FC02FE4CF80E28093B80008951092A3
:10044000BC0094EA9093BC009091BC0097FFFCCF55
:100450009091B900987F983011F081E008958093D1
:10046000BB0084E88093BC008091BC0087FFFCCF78
:100470008091B900887F883111F0803471F780E075
:1004800008958093BB0084E88093BC008091BC00F9
:1004900087FFFCCF9091B900987F81E0983209F4F2
:1004A00080E0089584EC8093BC008091BC0087FFBD
:1004B000FCCF8091BB00089584E88093BC008091BC
:1004C000BC0087FFFCCF8091BB000895DF92EF92C4
:1004D000FF920F931F93CF93DF93D62E072F7A01AE
:1004E0000E941F02182F882351F011E0812FDF9105
:1004F000CF911F910F91FF90EF90DF900895CD2D38
:10050000D02FEC0EFD1ECE15DF0521F484E980937B
:10051000BC00ECCF89910E9441028823A1F3E5CF72
:1005200084E98093BC000895AA1BBB1B51E107C05E
:10053000AA1FBB1FA617B70710F0A61BB70B881F73
:10054000991F5A95A9F780959095BC01CD01089502
:100550000E941C0388F09F5798F0B92F9927B75134
:10056000B0F0E1F0660F771F881F991F1AF0BA9557
:10057000C9F714C0B13091F00E943603B1E008957C
:100580000C943603672F782F8827B85F39F0B93F6E
:10059000CCF3869577956795B395D9F73EF490950A
:1005A0008095709561957F4F8F4F9F4F0895E89488
:1005B00009C097FB3EF490958095709561957F4FAB
:1005C0008F4F9F4F9923A9F0F92F96E9BB27939559
:1005D000F695879577956795B795F111F8CFFAF469
:1005E000BB0F11F460FF1BC06F5F7F4F8F4F9F4F9A
:1005F00016C0882311F096E911C0772321F09EE8F8
:10060000872F762F05C0662371F096E8862F70E05D
:1006100060E02AF09A95660F771F881FDAF7880F37
:100620009695879597F9089557FD9058440F551F53
:1006300059F05F3F71F04795880F97FB991F61F064
:100640009F3F79F087950895121613061406551FDB
:10065000F2CF4695F1DF08C0161617061806991F47
:10066000F1CF86957105610508940895E894BB273C
:1006700066277727CB0197F908950E9450030C94C1
:10068000C1030E94B30338F00E94BA0320F09523FF
:1006900011F00C94AA030C94B00311240C943703AA
:1006A0000E94140370F3959FC1F3950F50E0551FFE
:1006B000629FF001729FBB27F00DB11D639FAA27B7
:1006C000F00DB11DAA1F649F6627B00DA11D661F06
:1006D000829F2227B00DA11D621F739FB00DA11D27
:1006E000621F839FA00D611D221F749F3327A00DE1
:1006F000611D231F849F600D211D822F762F6A2F7D
:1007000011249F5750409AF0F1F088234AF0EE0FE1
:10071000FF1FBB1F661F771F881F91505040A9F70E
:100720009E3F510580F00C94AA030C9437035F3F61
:10073000E4F3983ED4F3869577956795B795F7954A
:10074000E7959F5FC1F7FE2B880F911D96958795C2
:1007500097F9089597F99F6780E870E060E0089541
:100760009FEF80EC089500240A94161617061806C9
:100770000906089500240A941216130614060506A5
:100780000895092E0394000C11F4882352F0BB0F36
:1007900040F4BF2B11F460FF04C06F5F7F4F8F4F99
:0807A0009F4F0895F894FFCF6C
:1007A80043616C6962726174696F6E20446174613F
:1007B8003A20000A43524320436865636B3A20009D
:1007C8003A290A00203A280A00436F756E74657248
:1007D8002056616C75653A20000A0A5375626D618E
:1007E80072696E6520436F6E74726F6C6C65720A05
:1007F8000076302E31000A507265737320616E796D
:10080800206B65793A0A005374617274696E6720C7
:0A08180050726F6772616D0A0000F4
:00000001FF
