:100000000C9434000C9451000C9451000C94510049
:100010000C9451000C9451000C9451000C9451001C
:100020000C9451000C9451000C9451000C94DD0080
:100030000C9451000C9451000C9451000C945100FC
:100040000C9451000C9451000C9451000C945100EC
:100050000C9451000C9451000C9451000C945100DC
:100060000C9451000C94510011241FBECFEFD8E026
:10007000DEBFCDBF11E0A0E0B1E0EAE7FEE002C0E4
:1000800005900D92AC3FB107D9F722E0ACEFB1E09B
:1000900001C01D92AE30B207E1F70E9465020C94D8
:1000A0003B070C940000DC018D919C9111979F708F
:1000B00011969C938E931F961C921E921E9790E011
:1000C00030E020E0E92FE695F0E0EE0FFF1FEA0FA9
:1000D000FB1F6081818190FF12C0262788E0B90153
:1000E000220F331F77FF02C060E336278150B9F734
:1000F0009F5F903139F7832F82958F70089550E07C
:1001000028273527EBCFEF92FF920F931F93CF93C2
:10011000DF937C010E94B40341E050E06EE170E0A7
:100120008CEE0E94FF038FE19EE40197F1F700C07F
:10013000000085E091E00E94E802E70110EA8CEE01
:100140000E94B803812F0E94DA030E9429048DEED9
:100150000E94B8030E94EB03082F0E94F503902F22
:10016000998388830E94290489810E9436038881AB
:100170000E9436031E5F22961E3A09F788E191E03D
:100180000E94E802F701C181C295CF70C7010E94A9
:100190005300C8130CC085E291E00E94E80281E0A0
:1001A000DF91CF911F910F91FF90EF9008958BE217
:1001B00091E00E94E80280E0F3CF1F920F920FB609
:1001C0000F921124CF92DF92EF92FF922F933F93E1
:1001D0004F935F936F937F938F939F93AF93BF934F
:1001E000EF93FF93289A86B193B126B1880F84705C
:1001F00096959270892B2170822B8093FF019091AC
:10020000780080917900892798278927843992403E
:100210000CF043C05C9A8091FF0182FF40C02091A6
:100220000001309101018091020190910301281B8E
:10023000390BA0910401B0E00E944D046B017C01D8
:1002400087E0F594E794D794C7948A95D1F78EE325
:10025000C80ED11CE11CF11CC6010E9417030E94AC
:10026000FB02C6010E9417030E94FB02C8BC28982B
:10027000FF91EF91BF91AF919F918F917F916F917E
:100280005F914F913F912F91FF90EF90DF90CF9032
:100290000F900FBE0F901F9018955C98BCCF877081
:1002A000813019F488E788BDE2CF823011F418BCA0
:1002B000DECF8330E1F68CE3F6CF209A289A0E94B5
:1002C000C90281E391E00E94E80289E491E00E9482
:1002D000E8028EE491E00E94E8020E94E1028FE5CC
:1002E00091E00E94E80228980895559A83E284BD1F
:1002F0008BE085BD8DE787BD8FE388BD0895ECE772
:10030000F0E0808186648083EAE7F0E080818362A8
:100310008083808180688083808180648083089569
:10032000F894E1E8F0E080818460808380818860D7
:100330008083EFE6F0E080818260808380E39AE74B
:1003400090938900809388007894089588B18360A1
:1003500088B92A9A8AB188618AB908950F931F9340
:10036000CF93DF93CDB7DEB76E970FB6F894DEBFAD
:100370000FBECDBF80917800A0917900BA2FA82F31
:1003800026EA30E10E945C04BB27A92F982F872F13
:1003900068EE73E00E9439049B0164E670E00E94FD
:1003A00039047F936F933F932F9381E791E09F935D
:1003B0008F938E010F5F1F4F1F930F930E94630453
:1003C000C8010E94E8020FB6F894DEBF0FBECDBF91
:1003D0006E960FB6F894DEBF0FBECDBFDF91CF9102
:1003E0001F910F9108950F931F93CF93DF93CDB774
:1003F000DEB764970FB6F894DEBF0FBECDBF809115
:1004000003018F93809102018F938CE891E09F9379
:100410008F938E010F5F1F4F1F930F930E946304F2
:10042000C8010E94E8020F900F900F900F900F905C
:100430000F9064960FB6F894DEBF0FBECDBFDF916C
:10044000CF911F910F9108950F931F93CF93DF9337
:10045000CDB7DEB7EC970FB6F894DEBF0FBECDBFB9
:100460008091FC011F928F938091FD011F928F93C9
:10047000809104011F928F938AE991E09F938F935B
:100480008E010F5F1F4F1F930F930E946304C801DB
:100490000E94E8020FB6F894DEBF0FBECDBFEC9607
:1004A0000FB6F894DEBF0FBECDBFDF91CF911F9185
:1004B0000F910895CF93DF93EB010E94E8020E9411
:1004C00045038883DF91CF91089578940E945D0160
:1004D0000E94A6010E947F010E9475010E94900166
:1004E00080E092E00E9483000E94E1028093FE017E
:1004F0008335B1F1A8F4893459F138F48434A1F783
:100500006CEF71E083ED91E008C08F34A1F180358C
:1005100059F764E071E08BEC91E00E945A02E4CF5D
:100520008436D9F028F48236F9F60E94AE01DCCF89
:100530008B3659F08337C1F60FB607FE24C0F89406
:100540008BEE91E00E94E802CFCF0E942402CCCF34
:100550006DEF71E08FEC91E0E0CF0E94F301C4CF2A
:1005600087ED91E00E94E8020E94680390930101E8
:1005700080930001B9CF81EE91E00E94E8020E94D1
:10058000450388BDB1CF81EF91E00E94E8027894E5
:10059000ABCF1092C50083E38093C400E0ECF0E0A1
:1005A00080818D7F808388E18093C10086E0809385
:1005B000C20008959091C00095FFFCCF8093C600C3
:1005C00008958091C00087FFFCCF8091C6000895F8
:1005D0000F931F93CF938C01C0E0F801EC0FF11D36
:1005E0008081811104C0CF911F910F9108950E94C5
:1005F000DA02CF5FF2CF8AE00C94DA02CF93C82FF1
:1006000064E60E942D04805D0E94DA022AE08C2FAD
:10061000622F0E942D04C92F0E942D0480E3890FB0
:100620000E94DA0280E38C0FCF910C94DA02CF9310
:10063000DF93EC01009731F488EF91E0DF91CF91E7
:100640000C94E80297FF07C0D195C195D1098AEFB4
:1006500091E00E94E8028C2FDF91CF910C94FE0272
:100660008A3010F4805D0895895C0895CF93C82F77
:1006700082958F700E9430030E94DA028C2F8F7057
:100680000E943003CF910C94DA020F931F93CF9303
:10069000DF93C0E3D0E310E30E94E102082F0E9441
:1006A000DA020D3089F4105380ED8C0F94E6199F17
:1006B000800D1124D0539AE0D99F800D1124DF9131
:1006C000CF911F910F9108951D2FDC2FC02FE4CFE4
:1006D000EF92FF920F931F93CF93DF93C0E300E35A
:1006E00080E3F82ED0E310E30E94E102E82E0E949E
:1006F000DA022DE0E21232C0412F4053550B9A012D
:1007000040E157E2249FC001259F900D349F900D3A
:1007100011244D2F4053550B9A0168EE73E0269F2C
:10072000A001279F500D369F500D1124840F951F57
:1007300054E6F59E800D911D11242AE0029F800D44
:10074000911D1124805A94418C0F911DC097DF9107
:10075000CF911F910F91FF90EF9008951D2FDF2DE6
:10076000F02E0C2FCE2DC0CF80E28093B8000895DC
:100770001092BC0094EA9093BC009091BC0097FF4B
:10078000FCCF9091B900987F983011F081E00895E6
:100790008093BB0084E88093BC008091BC0087FFFD
:1007A000FCCF8091B900887F883111F0803471F7D7
:1007B00080E008958093BB0084E88093BC00809122
:1007C000BC0087FFFCCF9091B900987F81E0983200
:1007D00009F480E0089584EC8093BC008091BC0013
:1007E00087FFFCCF8091BB00089584E88093BC0014
:1007F0008091BC0087FFFCCF8091BB000895DF9201
:10080000EF92FF920F931F93CF93DF93D62E072F74
:100810007A010E94B803182F882351F011E0812F2C
:10082000DF91CF911F910F91FF90EF90DF9008958E
:10083000CD2DD02FEC0EFD1ECE15DF0521F484E961
:100840008093BC00ECCF89910E94DA038823A1F346
:10085000E5CF84E98093BC000895991B79E004C03A
:10086000991F961708F0961B881F7A95C9F78095EF
:100870000895AA1BBB1B51E107C0AA1FBB1FA617E7
:10088000B70710F0A61BB70B881F991F5A95A9F739
:1008900080959095BC01CD010895A29FB001B39FB2
:1008A000C001A39F700D811D1124911DB29F700D79
:1008B000811D1124911D08950E944D04B7FF0895D4
:1008C000821B930B0895AEE0B0E0E9E6F4E00C94EF
:1008D00012070D891E8986E08C831A8309838FEFA6
:1008E0009FE79E838D83AE01475E5F4F6F89788D52
:1008F000CE0101960E9486042F813885020F131FB6
:10090000F80110822E96E4E00C942E07ABE0B0E0E4
:10091000ECE8F4E00C9404077C013B018A01FC0143
:1009200017821682838181FFC8C1CE0101965C01C6
:10093000F7019381F30193FD859193FF81913F012D
:10094000882309F453C1853239F493FD859193FFCF
:1009500081913F01853229F4B70190E00E9476062B
:10096000E7CF912C212C312CFFE1F31538F08B329D
:1009700011F190F4803209F1833229F137FC3CC047
:1009800020ED280F2A3050F536FE20C08AE0989ED0
:10099000200D1124922E06C08D3291F0803371F714
:1009A000689430F8F30193FD859193FF81913F01A5
:1009B0008111DACF21C0689431F8689432F8F2CF0F
:1009C000689433F8EFCF689434F8ECCFEAE02E9EC9
:1009D000200D1124222E689435F8E4CF8E3229F4AC
:1009E00036FC04C1689436F8DDCF8C3619F468946F
:1009F00037F8D8CF8836B1F2982F9F7D9554933031
:100A0000E0F08336A1F18337C1F1833509F063C08B
:100A10002801F2E04F0E511CF801C080D180692DF1
:100A200070E036FC02C06FEF7FEFC6010E946006E7
:100A30004C01689437F882010AC00C5F1F4FFFE336
:100A4000F98388248394912C6501E89437F833FE68
:100A50002DC0522C8114910471F5552009F468CFF2
:100A6000B70180E290E00E9476065A94F6CFF80132
:100A7000808189830E5F1F4FE4CF2801F2E04F0E83
:100A8000511CF801C080D180692D70E036FC02C095
:100A90006FEF7FEFC6010E946B064C018201D5CF3C
:100AA000B70180E290E00E9476062A942814190487
:100AB00009F0B0F7CECFF60137FC859137FE819172
:100AC0006F01B70190E00E94760651105A94F1E050
:100AD0008F1A9108BFCF843619F0893609F077C094
:100AE000F80137FE6BC060817181828193810C5F58
:100AF0001F4FF32DFF763F2E97FF09C090958095ED
:100B0000709561957F4F8F4F9F4F689437F82AE01B
:100B100030E0A5010E94A606C82ECA188C2C432CD2
:100B200036FE0CC0E89440F8C91440F434FE05C009
:100B300032FC03C0F32DFE7E4F2E892C44FE95C05F
:100B4000FE01EC0DF11D8081803309F087C0242D5A
:100B5000297E422E842D8870582E43FC95C040FE7D
:100B60008FC09C2C821418F42C0C922C981844FEE4
:100B700091C0B70180E390E00E94760642FE09C072
:100B800088E790E041FE02C088E590E0B7010E944E
:100B90007606C91408F48AC0CA94D12C9FEFC91AEA
:100BA000D90ACA0CDB1CF60182916F01B70190E0F3
:100BB0000E947606AC14BD04B1F74FCF60817181FD
:100BC000072E000C880B990B0E5F1F4F92CFD32C72
:100BD000E894D4F82AE030E0853739F1232D297FD5
:100BE000D22E8F3601F148F48835A9F0F7018681BD
:100BF00097812B96E2E10C942007803749F08837E3
:100C0000A9F7D4FE02C06894D2F820E130E00DC00C
:100C10006894D4F8F6CF34FE03C0822F8660D82EB5
:100C200020E132E002C028E030E0F801D7FE0FC03A
:100C300060817181828193810C5F1F4FA5010E94A9
:100C4000A606C82ECA183D2CE89437F867CF6081F5
:100C5000718190E080E00E5F1F4FF0CF42FC02C038
:100C6000839478CF8394839475CF842D867809F408
:100C700071CFF6CFB70180E290E00E9476068394B0
:100C80008214C0F3512C73CF522C5818821408F4DC
:100C90006ECFF8CF842D867809F47BCF8BE241FEAE
:100CA00080E247FC8DE2B70190E071CFB70180E3AD
:100CB00090E00E9476069A946CCF8FEF9FEF99CFC9
:100CC000FC010590615070400110D8F78095909517
:100CD0008E0F9F1F0895FC0161507040019001101C
:100CE000D8F7809590958E0F9F1F08950F931F93AF
:100CF000CF93DF93182F092FEB018B8181FD09C062
:100D00001FEF0FEF812F902FDF91CF911F910F9148
:100D1000089582FF14C02E813F818C819D81281708
:100D200039073CF4E881F981CF01019699838883E2
:100D300010838E819F8101969F838E83E3CFE88508
:100D4000F985812F0995892BA1F3DACFFA01AA271A
:100D5000283051F1203181F1E8946F936E7F6E5FFE
:100D60007F4F8F4F9F4FAF4FB1E03ED0B4E03CD0AC
:100D7000670F781F891F9A1FA11D680F791F8A1F8F
:100D8000911DA11D6A0F711D811D911DA11D20D0F6
:100D900009F468943F912AE0269F11243019305DB0
:100DA0003193DEF6CF010895462F4770405D4193A1
:100DB000B3E00FD0C9F7F6CF462F4F70405D4A33EE
:100DC00018F0495D31FD4052419302D0A9F7EACFB6
:100DD000B4E0A6959795879577956795BA95C9F7E5
:100DE00000976105710508959B01AC010A2E0694D8
:100DF0005795479537952795BA95C9F7620F731F91
:100E0000841F951FA01D08952F923F924F925F92CD
:100E10006F927F928F929F92AF92BF92CF92DF920A
:100E2000EF92FF920F931F93CF93DF93CDB7DEB76F
:100E3000CA1BDB0B0FB6F894DEBF0FBECDBF099403
:100E40002A88398848885F846E847D848C849B845A
:100E5000AA84B984C884DF80EE80FD800C811B8168
:100E6000AA81B981CE0FD11D0FB6F894DEBF0FBE97
:0A0E7000CDBFED010895F894FFCF07
:100E7A00C800F4010A43616C6962726174696F6E39
:100E8A0020446174613A20000A4352432043686552
:100E9A00636B3A2000476F6F640A00204261640A5C
:100EAA00000A0A5375626D6172696E6520436F6E3E
:100EBA0074726F6C6C65720A0076302E31000A50BB
:100ECA007265737320616E79206B65793A0A0053F3
:100EDA0074617274696E672050726F6772616D0A0D
:100EEA00004261747465727920566F6C746167652B
:100EFA003A2025752E25312E75560A0044657074E0
:100F0A00683A20257520636D0A00436F6E74726F0C
:100F1A006C206C6F6F70207661726961626C6573A8
:100F2A003A0A20206B703A25750A20206B693A2507
:100F3A00750A20206B643A25750A006B703D006BB8
:100F4A00693D006B643D00536574706F696E743D52
:100F5A0000506F736974696F6E3D0073746F700A25
:0C0F6A000073746172740A0030002D00E6
:00000001FF
