:100000000C9434000C9451000C9451000C94510049
:100010000C9451000C9451000C9451000C9451001C
:100020000C9451000C9451000C9451000C94DD0080
:100030000C9451000C9451000C9451000C945100FC
:100040000C9451000C9451000C9451000C945100EC
:100050000C9451000C9451000C9451000C945100DC
:100060000C9451000C94510011241FBECFEFD8E026
:10007000DEBFCDBF11E0A0E0B1E0E4E7F4E002C0F4
:1000800005900D92AA38B107D9F721E0AAE8B1E0AE
:1000900001C01D92A939B207E1F70E946C010C94CE
:1000A00038020C940000DC018D919C9111979F7097
:1000B00011969C938E931F961C921E921E9790E011
:1000C00030E020E0E92FE695F0E0EE0FFF1FEA0FA9
:1000D000FB1F6081818190FF12C0262788E0B90153
:1000E000220F331F77FF02C060E336278150B9F734
:1000F0009F5F903139F7832F82958F70089550E07C
:1001000028273527EBCFEF92FF920F931F93CF93C2
:10011000DF937C010E94BF0141E050E06EE170E09E
:100120008CEE0E940A028FE19EE40197F1F700C075
:10013000000080E091E00E949701E70110EA8CEE58
:100140000E94C301812F0E94E5010E9434028DEEBE
:100150000E94C3010E94F601082F0E940002902F06
:10016000998388830E94340289810E94B00188812A
:100170000E94B0011E5F22961E3A09F783E191E0CA
:100180000E949701F701C181C295CF70C7010E94FB
:100190005300C8130CC080E291E00E94970181E0F7
:1001A000DF91CF911F910F91FF90EF90089586E21C
:1001B00091E00E94970180E0F3CF1F920F920FB65B
:1001C0000F9211242F933F934F935F936F937F93DD
:1001D0008F939F93AF93BF93EF93FF93289A86B12A
:1001E00093B126B134E0939FC00111248870922FFF
:1001F000990F9270892B80938A0181FF1EC08BE238
:1002000088BD8CE291E00E9497018FEC97E0019706
:10021000F1F700C000002898FF91EF91BF91AF91D6
:100220009F918F917F916F915F914F913F912F910E
:100230000F900FBE0F901F90189581E391E0E3CFD0
:10024000209A289A2FEF89E698E12150804090402B
:10025000E1F700C0000028982FEF89E698E12150CF
:1002600080409040E1F700C00000289A0E94780189
:1002700089E491E00E94970181E691E00E94970154
:1002800086E691E00E9497010E94900187E791E045
:100290000E94970128980895559A83E284BD8BE0C7
:1002A00085BD8DE787BD8FE388BD0895F894E1E8AB
:1002B000F0E0808184608083808188608083EFE6C5
:1002C000F0E08081826080838EE39AE790938900DA
:1002D000809388007894089578940E9420010E9469
:1002E00056010E944C018BE891E00E948300FFCFF1
:1002F0001092C50083E38093C400E0ECF0E08081BD
:100300008D7F808388E18093C10086E08093C20066
:1003100008959091C00095FFFCCF8093C60008958A
:100320008091C00087FFFCCF8091C60008950F9395
:100330001F93CF938C01C0E0F801EC0FF11D808179
:10034000811104C0CF911F910F9108950E948901DE
:10035000CF5FF2CF8A3010F4805D0895895C0895F4
:10036000CF93C82F82958F700E94AA010E948901A5
:100370008C2F8F700E94AA01CF910C94890180E28A
:100380008093B80008951092BC0094EA9093BC004A
:100390009091BC0097FFFCCF9091B900987F983066
:1003A00011F081E008958093BB0084E88093BC0045
:1003B0008091BC0087FFFCCF8091B900887F883195
:1003C00011F0803471F780E008958093BB0084E8D9
:1003D0008093BC008091BC0087FFFCCF9091B90056
:1003E000987F81E0983209F480E0089584EC80934E
:1003F000BC008091BC0087FFFCCF8091BB000895BA
:1004000084E88093BC008091BC0087FFFCCF809182
:10041000BB000895DF92EF92FF920F931F93CF934B
:10042000DF93D62E072F7A010E94C301182F88234D
:1004300051F011E0812FDF91CF911F910F91FF902B
:10044000EF90DF900895CD2DD02FEC0EFD1ECE1530
:10045000DF0521F484E98093BC00ECCF89910E94F0
:10046000E5018823A1F3E5CF84E98093BC000895DA
:04047000F894FFCF2E
:1004740043616C6962726174696F6E204461746176
:100484003A20000A43524320436865636B3A2000D4
:10049400476F6F640A00204261640A00446F776EFC
:1004A40000536F6D657468696E672077656E74209C
:1004B40077726F6E67203A28000A0A5375626D617D
:1004C40072696E6520436F6E74726F6C6C65720A2C
:1004D4000076302E31000A507265737320616E7994
:1004E400206B65793A0A005374617274696E6720EF
:0A04F40050726F6772616D0A00001C
:00000001FF
