:100000000C9434000C9451000C9451000C94510049
:100010000C9451000C9451000C9451000C9451001C
:100020000C9451000C9451000C9451000C9453000A
:100030000C9451000C9451000C9451000C945100FC
:100040000C9451000C9451000C9451000C945100EC
:100050000C9451000C9451000C9451000C945100DC
:100060000C9451000C94510011241FBECFEFD8E026
:10007000DEBFCDBF11E0A0E0B1E0E8E1F5E002C0F5
:1000800005900D92A434B107D9F721E0A4E4B1E0C2
:1000900001C01D92A534B207E1F70E94C1000C9483
:1000A0008A020C9400001F920F920FB60F92112437
:1000B0002F933F934F935F936F937F938F939F9370
:1000C000AF93BF93EF93FF9385B191E0892785B9F3
:1000D00089B10E94200181E091E00E940D0199B157
:1000E00081E0911101C080E00E94200180E091E058
:1000F0000E940D0189B18091440188BDFF91EF916B
:10010000BF91AF919F918F917F916F915F914F912F
:100110003F912F910F900FBE0F901F9018957894DC
:10012000209AE1E8F0E080818860808388E09DE3A8
:100130009093890080938800AFE6B0E08C91826054
:100140008C938081836080830895559A83E284BD77
:100150008AE085BD80E887BD18BC08958AB18AB958
:10016000ECE7F0E0808183668083EAE7F0E080815D
:1001700083628083808180688083808180648083C3
:1001800008950E94EE0083E091E00E940D018BE152
:1001900091E00E940D0180E291E00E940D010E9419
:1001A000060181E391E00E940D010E948F000E94F0
:1001B000A5000E94AE000E943D01682F70E090E013
:1001C00080E00E9491012AE037ED43EA5FE30E945C
:1001D000F5010E94600160934401EDCF1092C500CB
:1001E0008CE08093C400E0ECF0E08081826080834A
:1001F00088E18093C10086E08093C20008959091C9
:10020000C00095FFFCCF8093C60008958091C00088
:1002100087FFFCCF8091C60008950F931F93CF9363
:100220008C01C0E0F801EC0FF11D8081811104C048
:10023000CF911F910F9108950E94FF00CF5FF2CFE1
:100240000F931F93CF93DF93C7E0D0E0082F10E008
:10025000C8010C2E02C0959587950A94E2F780FF9D
:100260000AC081E30E94FF00219790F7DF91CF91B0
:100270001F910F91089580E3F5CF0F931F93CF93B4
:10028000DF93C0E3D0E310E30E940601082F0E9431
:10029000FF000D3089F4105380ED8C0F94E6199F08
:1002A000800D1124D0539AE0D99F800D1124DF9145
:1002B000CF911F910F9108951D2FDC2FC02FE4CFF8
:1002C0000E94D40188F09F5798F0B92F9927B75111
:1002D000B0F0E1F0660F771F881F991F1AF0BA95EA
:1002E000C9F714C0B13091F00E94EE01B1E0089559
:1002F0000C94EE01672F782F8827B85F39F0B93F4B
:10030000CCF3869577956795B395D9F73EF490959C
:100310008095709561957F4F8F4F9F4F0895E8941A
:1003200009C097FB3EF490958095709561957F4F3D
:100330008F4F9F4F9923A9F0F92F96E9BB279395EB
:10034000F695879577956795B795F111F8CFFAF4FB
:10035000BB0F11F460FF1BC06F5F7F4F8F4F9F4F2C
:1003600016C0882311F096E911C0772321F09EE88A
:10037000872F762F05C0662371F096E8862F70E0F0
:1003800060E02AF09A95660F771F881FDAF7880FCA
:100390009695879597F9089557FD9058440F551FE6
:1003A00059F05F3F71F04795880F97FB991F61F0F7
:1003B0009F3F79F087950895121613061406551F6E
:1003C000F2CF4695F1DF08C0161617061806991FDA
:1003D000F1CF86957105610508940895E894BB27CF
:1003E00066277727CB0197F908950E9408020C949D
:1003F00079020E946B0238F00E94720220F095236D
:1004000011F00C9462020C94680211240C94EF0118
:100410000E94CC0170F3959FC1F3950F50E0551FDA
:10042000629FF001729FBB27F00DB11D639FAA2749
:10043000F00DB11DAA1F649F6627B00DA11D661F98
:10044000829F2227B00DA11D621F739FB00DA11DB9
:10045000621F839FA00D611D221F749F3327A00D73
:10046000611D231F849F600D211D822F762F6A2F0F
:1004700011249F5750409AF0F1F088234AF0EE0F74
:10048000FF1FBB1F661F771F881F91505040A9F7A1
:100490009E3F510580F00C9462020C94EF015F3F87
:1004A000E4F3983ED4F3869577956795B795F795DD
:1004B000E7959F5FC1F7FE2B880F911D9695879555
:1004C00097F9089597F99F6780E870E060E00895D4
:1004D0009FEF80EC089500240A941616170618065C
:1004E0000906089500240A94121613061406050638
:1004F0000895092E0394000C11F4882352F0BB0FC9
:1005000040F4BF2B11F460FF04C06F5F7F4F8F4F2B
:080510009F4F0895F894FFCFFE
:100518000D0D000A0A5375626D6172696E6520439C
:100528006F6E74726F6C6C65720A0076302E3100D3
:100538000A507265737320616E79206B65793A0A87
:10054800005374617274696E672050726F677261CC
:040558006D0A000028
:00000001FF
