:100000000C9434000C9449000C9449000C94490061
:100010000C9449000C9449000C9449000C9449003C
:100020000C9449000C9449000C9449000C944B002A
:100030000C9449000C9449000C9449000C9449001C
:100040000C9449000C9449000C9449000C9449000C
:100050000C9449000C9449000C9449000C944900FC
:100060000C9449000C94490011241FBECFEFD8E036
:10007000DEBFCDBF11E0A0E0B1E0ECE7F2E002C0EE
:1000800005900D92A235B107D9F70E9473000C9428
:100090003C010C9400001F920F920FB60F92112496
:1000A0008F939F9385B191E0892785B99F918F9117
:1000B0000F900FBE0F901F9018957894209AE1E84A
:1000C000F0E080818860808388E09DE390938900E0
:1000D00080938800AFE6B0E08C9182608C93808141
:1000E0008360808308950E94C50080E091E00E94B3
:1000F000E40088E191E00E94E4008DE191E00E943B
:10010000E4000E94DD008823E1F38EE291E00E948A
:10011000E4000E945D000E948E00FFCF209A289A82
:100120000E94F7008CEE0E94FB008EE10E941D01F0
:100130000E94380183EC99E00197F1F700C00000BC
:100140008CEE0E94FB0080EA0E941D010E94380193
:1001500083EC99E00197F1F700C000008DEE0E945A
:10016000FB0089EF90E00197F1F700C000000E94CA
:100170002E0189EF90E00197F1F700C000000E9486
:10018000380180E491E00C94E4001092C5008CE00A
:100190008093C400E0ECF0E080818260808388E19D
:1001A0008093C10086E08093C20008959091C000C2
:1001B00095FFFCCF8093C60008958091C00087FF13
:1001C000FCCF8091C60008950F931F93CF938C01AD
:1001D000C0E0F801EC0FF11D8081811104C0CF91C6
:1001E0001F910F9108950E94D600CF5FF2CF8DEF3F
:1001F0008093B80008951092BC0094EA9093BC00DC
:100200009091BC0097FFFCCF9091B900987F9830F7
:1002100011F081E008958093BB0084E88093BC00D6
:100220008091BC0087FFFCCF8091B900887F883126
:1002300011F0803471F780E008958093BB0084E86A
:100240008093BC008091BC0087FFFCCF9091B900E7
:10025000987F81E0983209F480E0089584EC8093DF
:10026000BC008091BC0087FFFCCF8091BB0008954B
:0C02700084E98093BC000895F894FFCF4F
:10027C000A0A5375626D6172696E6520436F6E7404
:10028C00726F6C6C65720A0076302E31000A5072F7
:10029C0065737320616E79206B65793A0A0053742B
:1002AC00617274696E672050726F6772616D0A00BB
:1002BC004461746120636F6C6C6563746564200ABF
:0202CC00000030
:00000001FF
