:100000000C9434000C9451000C9451000C94510049
:100010000C9451000C9451000C9451000C9451001C
:100020000C9451000C9451000C9451000C946D02EE
:100030000C9451000C9451000C9451000C945100FC
:100040000C9451000C9451000C9451000C945100EC
:100050000C9451000C9451000C9451000C945100DC
:100060000C9451000C94510011241FBECFEFD8E026
:10007000DEBFCDBF11E0A0E0B1E0E8EAF6E102C0EA
:1000800005900D92A63DB107D9F721E0A6EDB1E0AC
:1000900001C01D92AC3EB207E1F70E9472040C94BD
:1000A000520B0C940000CF92DF92EF92FF92F82E49
:1000B0008CEE0E9485058F2D0E94A7050E94F605F3
:1000C0008FE39CE90197F1F700C000008CEE0E94DD
:1000D000850580E00E94A7050E94F6058DEE0E942E
:1000E00085050E94B80590E0B0E0A0E0CC24D82EB1
:1000F000E92EFA2E0E94B805C82AFE2CED2CDC2C25
:10010000CC240E94C205C82A0E94F605C701B60188
:10011000FF90EF90DF90CF9008952F923F924F92F3
:100120005F926F927F928F929F92AF92BF92CF9287
:10013000DF92EF92FF920F931F93CF93DF93CDB790
:10014000DEB72A970FB6F894DEBF0FBECDBF9987F2
:1001500088878AE40E9453002B013C018AE50E94B3
:100160005300AB01BC01A885B9851A968D919C916D
:10017000B0E0A0E0BA2FA92F982F88278A019B0111
:10018000081B190B2A0B3B0B09831A832B833C8317
:10019000A885B98516966D917C9190E080E0A901C3
:1001A00098010E94780608E00E94BC0619014A01E5
:1001B000B62FA72F8D839E83E885F985A280B38013
:1001C000D12CC12C9501A60160E070E080E090E0A8
:1001D0000FE00E94A30659016A017B018C01910185
:1001E000A4016B2F7A2F8D819E810E94D906120166
:1001F00051016301E12CF12C00E010E00E94200687
:1002000005E10E94BC0629013A01962E872E382E60
:10021000292EA885B98518966D917C9190E080E093
:1002200029813A814B815C810E94780607E00E9417
:10023000BC062983D32EE42E5D836E837F83F82F43
:10024000E92FA885B98514964D915C919A0140E0FB
:1002500050E060E070E080E090E000E10E94A306E2
:100260005901C42E5A876887F72E8C0129813D2DAC
:100270004E2D5D816E817F818F2F9E2FDA84E884E1
:100280000E94D90659016A017B018C019201A301E8
:10029000692D782D832D922D0E94E206122F3D8329
:1002A0004983B52FF62FE72FF82E092FA0E00E94E3
:1002B000EB0684F42150304E4F4F5F4F6F4F7F4F0E
:1002C0008F4F9F4F122F3D834983B52FF62FE72F76
:1002D000F82E092F212F3D8149815B2F6F2F7E2F13
:1002E0008F2D902F0DE00E94BC06AAE0B0E00E9486
:1002F00015069B01AC01285A334841405109A4E638
:10030000B0E00E9415060E94B00728E432ED48E1F3
:1003100056E40E9406070E947F072A960FB6F894BB
:10032000DEBF0FBECDBFDF91CF911F910F91FF9028
:10033000EF90DF90CF90BF90AF909F908F907F9085
:100340006F905F904F903F902F900895DC018D91BA
:100350009C9111979F7011969C938E931F961C925F
:100360001E921E9790E030E020E0E92FE695F0E045
:10037000EE0FFF1FEA0FFB1F6081818190FF12C00B
:10038000262788E0B901220F331F77FF02C060E300
:1003900036278150B9F79F5F903139F7832F8295C7
:1003A0008F70089550E028273527EBCF6F927F920A
:1003B0008F929F92AF92BF92CF92DF92EF92FF9275
:1003C0000F931F93CF93DF93CDB7DEB764970FB62C
:1003D000F894DEBF0FBECDBF7C010E94810541E0D5
:1003E00050E06EE170E08CEE0E94CC058FE19EE45F
:1003F0000197F1F700C0000088E091E00E94FF043F
:10040000670180EA782E10E000E09CE1892E91E0FF
:10041000992EFE0131965F018CEE0E948505872D95
:100420000E94A7050E94F6058DEE0E9485050E9498
:10043000B805682E0E94C205962DF601819391930E
:100440006F010E94F605F601329781818F938081BA
:100450008F931F930F939F928F92BF92AF920E94A0
:100460007A08C5010E94FF040F5F1F4F73947394B5
:100470000FB6F894DEBF0FBECDBF0730110561F691
:1004800086E291E00E94FF04F701118112951F702E
:10049000C7010E94A60118131AC08CE291E00E94C5
:1004A000FF0481E064960FB6F894DEBF0FBECDBFA7
:1004B000DF91CF911F910F91FF90EF90DF90CF9040
:1004C000BF90AF909F908F907F906F90089582E340
:1004D00091E00E94FF0480E0E5CF1F920F920FB6DB
:1004E0000F9211248F929F92AF92BF92CF92DF9280
:1004F000EF92FF920F931F932F933F934F935F932E
:100500006F937F938F939F93AF93BF93CF93DF931B
:10051000EF93FF93289A86B193B126B1880F847028
:1005200096959270892B2170822B8093DD0190919A
:10053000780080917900892798278927843992400B
:1005400064F55C9A8EED91E00E948D00609303014A
:10055000709304018093050190930601C0910001FE
:100560002091DD0122FF84C0A090D801B090D90174
:10057000B092D701A092D6012091010130910201E1
:10058000621B730B693E83E078074CF088EE93E0C2
:100590009093D9018093D8010BC05C98D3CF683178
:1005A0009CEF79070CF461C07093D9016093D80176
:1005B0008501000F111F0A0D1B1D8091D80190911C
:1005C000D901080F191F15950795159507951093D3
:1005D000D9010093D801D0E0BE01685D7F4F072E9E
:1005E000000C880B990B0E94B0076B017C01809175
:1005F0000701809FB001819F700D1124660F672F46
:10060000661F770B6C0F7D1F0A191B092091DA01F9
:10061000209FC001219F900D1124880F892F881FD2
:10062000990B680F791F072E000C880B990B0E94FD
:10063000B007A70196010E940A086B017C01BE0168
:1006400068527109072E000C880B990B0E94B007A5
:100650004B015C01C701B6010E9478070E94B007F8
:10066000A50194010E94EB0716C088E19CEF90CF92
:100670002770213089F56C2F70E0685D7F4F072E61
:10068000000C880B990B0E94B00720E030E04EEF81
:1006900052E40E940A080E94780768BD2898FF91DA
:1006A000EF91DF91CF91BF91AF919F918F917F910A
:1006B0006F915F914F913F912F911F910F91FF90FB
:1006C000EF90DF90CF90BF90AF909F908F900F9062
:1006D0000FBE0F901F9018956C2F2230F1F68C2FC3
:1006E0008852990BBC01072E000C880B990B0E94B5
:1006F000B00720E030E0A901B5CF559A83E284BD70
:100700008BE085BD8FE787BD8FE388BD0895ECE75B
:10071000F0E0808186648083EAE7F0E08081836294
:100720008083808180688083808180648083089555
:10073000F894E1E8F0E080818460808380818860C3
:100740008083EFE6F0E080818260808388E39CE034
:1007500090938900809388007894089588B183608D
:1007600088B92A9A8AB188618AB908950F931F932C
:10077000CF93DF93CDB7DEB76E970FB6F894DEBF99
:100780000FBECDBF80917800A0917900BA2FA82F1D
:1007900026EA30E10E940E06BB27A92F982F872F4B
:1007A00068EE73E00E94FA059B0164E670E00E9427
:1007B000FA057F936F933F932F9388E391E09F9384
:1007C0008F938E010F5F1F4F1F930F930E947A0824
:1007D000C8010E94FF040FB6F894DEBF0FBECDBF64
:1007E0006E960FB6F894DEBF0FBECDBFDF91CF91EE
:1007F0001F910F9108950F931F93CF93DF93CDB760
:10080000DEB764970FB6F894DEBF0FBECDBF809100
:1008100006018F93809105018F93809104018F933E
:10082000809103018F9383E591E09F938F938E01D5
:100830000F5F1F4F1F930F930E947A08C8010E94F9
:10084000FF040FB6F894DEBF0FBECDBF64960FB69F
:10085000F894DEBF0FBECDBFDF91CF911F910F91F6
:1008600008950F931F93CF93DF93CDB7DEB7EC9727
:100870000FB6F894DEBF0FBECDBF8091DA011F9294
:100880008F938091DB011F928F93809107011F92BC
:100890008F9382E691E09F938F938E010F5F1F4F9E
:1008A0001F930F930E947A08C8010E94FF040FB69D
:1008B000F894DEBF0FBECDBFEC960FB6F894DEBF46
:1008C0000FBECDBFDF91CF911F910F910895CF93B0
:1008D000DF93EB010E94FF040E9412058883DF91E1
:1008E000CF9108950E94E0040E94AE030E94870306
:1008F0000E947D030E9498038EED91E00E94D60134
:100900000E94F8048093DC018335C1F1A8F4893496
:1009100081F138F48434A1F76AED71E08BE991E05C
:1009200008C08F34B1F1803559F767E071E083E991
:1009300091E00E946704E4CF8B36C1F038F4823630
:1009400091F08436E9F60E94FB03DACF8D3679F117
:100950008337B1F60FB607FE24C0F89483EB91E01D
:100960000E94FF04CDCF0E94B603CACF0E9431047B
:10097000C7CF6BED71E087E991E0DBCF8FE991E0C4
:100980000E94FF040E9435059093020180930101AB
:10099000B7CF89EA91E00E94FF040E94120588BD4A
:1009A000AFCF89EB91E00E94FF047894A9CF80EC4F
:1009B00091E00E94FF040E94120580930001A0CFE5
:1009C0001092C50083E38093C400E0ECF0E08081E6
:1009D0008D7F808388E18093C10086E08093C20090
:1009E00008959091C00095FFFCCF8093C6000895B4
:1009F0008091C00087FFFCCF8091C60008950F93BF
:100A00001F93CF938C01C0E0F801EC0FF11D8081A2
:100A1000811104C0CF911F910F9108950E94F1049C
:100A2000CF5FF2CF0F931F93CF93DF93C0E3D0E359
:100A300010E30E94F804082F0E94F1040D3089F49D
:100A4000105380ED8C0F94E6199F800D1124D05324
:100A50009AE0D99F800D1124DF91CF911F910F91C2
:100A600008951D2FDC2FC02FE4CFEF92FF920F933C
:100A70001F93CF93DF93C0E300E380E3F82ED0E32E
:100A800010E30E94F804E82E0E94F1042DE0E21227
:100A900032C0412F4053550B9A0140E157E2249F49
:100AA000C001259F900D349F900D11244D2F405370
:100AB000550B9A0168EE73E0269FA001279F500D09
:100AC000369F500D1124840F951F54E6F59E800D1E
:100AD000911D11242AE0029F800D911D1124805A3E
:100AE00094418C0F911DC097DF91CF911F910F9171
:100AF000FF90EF9008951D2FDF2DF02E0C2FCE2D9F
:100B0000C0CF80E28093B80008951092BC0094EAB0
:100B10009093BC009091BC0097FFFCCF9091B900DE
:100B2000987F983011F081E008958093BB0084E8AD
:100B30008093BC008091BC0087FFFCCF8091B900FE
:100B4000887F883111F0803471F780E008958093B8
:100B5000BB0084E88093BC008091BC0087FFFCCF81
:100B60009091B900987F81E0983209F480E008956F
:100B700084EC8093BC008091BC0087FFFCCF809107
:100B8000BB00089584E88093BC008091BC0087FF7F
:100B9000FCCF8091BB000895DF92EF92FF920F93FC
:100BA0001F93CF93DF93D62E072F7A010E948505DE
:100BB000182F882351F011E0812FDF91CF911F91E1
:100BC0000F91FF90EF90DF900895CD2DD02FEC0E78
:100BD000FD1ECE15DF0521F484E98093BC00ECCF27
:100BE00089910E94A7058823A1F3E5CF84E980932A
:100BF000BC000895AA1BBB1B51E107C0AA1FBB1F65
:100C0000A617B70710F0A61BB70B881F991F5A9598
:100C1000A9F780959095BC01CD0108950E94F70633
:100C2000B7FF0895821B930B08950E94F706A59FB6
:100C3000900DB49F900DA49F800D911D11240895D7
:100C4000DF93CF931F930F939A9DF02D219FF00D6B
:100C50008B9DF00D8A9DE02DF10D039FF00D029FFD
:100C6000E00DF11D4E9DE00DF11D5E9DF00D4F9DBF
:100C7000F00D7F936F93BF92AF925F934F93D50127
:100C80000E94F7068B01AC01D7010E94F706EB0129
:100C9000E80FF91FD6010E946F062F913F91D601F0
:100CA0000E94F706C60FD71FE81FF91FAF91BF912B
:100CB0000E946F062F913F910E94F706C60FD71F23
:100CC000E81FF91FD6010E94F706E60FF71F9801EB
:100CD000BE01CF010F911F91CF91DF9108950E9426
:100CE000F706460F571FC81FD91F08F431960895FD
:100CF000E894DF93CF93FC01DB010E94F7067F931A
:100D00006F93E9019A01AC01BF93AF933F932F9387
:100D1000DF010E94F70626F46C1B7D0B820B930B00
:100D20009E01EB01FC010E946F06AF91BF912F91D4
:100D30003F910E946F06BE01CF01F9012F913F91B3
:100D4000CF91DF910895002E083090F0982F872FD3
:100D5000762F652F542F432F322F22270850F4CFA0
:100D6000220F331F441F551F661F771F881F991FAF
:100D70000A95B2F7002D089597FD1094002E0830C3
:100D800098F00850232F342F452F562F672F782F98
:100D9000892F912DF4CF1594979587957795679521
:100DA00057954795379527950A95AAF71124002D51
:100DB00008952A0D3B1D4C1D5D1D6E1D7F1D801F5E
:100DC000911F08952A193B094C095D096E097F0995
:100DD000800B910B08950024A7FD00942A1730057D
:100DE0004005500560057005800590050895A29F97
:100DF000B001B39FC001A39F700D811D1124911DEF
:100E0000B29F700D811D1124911D08950E941A0733
:100E10000C9440080E94390858F00E94320840F0B3
:100E200029F45F3F29F00C94290851110C9474089F
:100E30000C942F080E94510868F39923B1F35523AD
:100E400091F3951B550BBB27AA27621773078407DD
:100E500038F09F5F5F4F220F331F441FAA1FA9F373
:100E600035D00E2E3AF0E0E832D091505040E69561
:100E7000001CCAF72BD0FE2F29D0660F771F881FC2
:100E8000BB1F261737074807AB07B0E809F0BB0BB5
:100E9000802DBF01FF2793585F4F3AF09E3F5105C9
:100EA00078F00C9429080C9474085F3FE4F3983EA2
:100EB000D4F3869577956795B795F7959F5FC9F7B2
:100EC000880F911D9695879597F90895E1E0660F33
:100ED000771F881FBB1F621773078407BA0720F0AC
:100EE000621B730B840BBA0BEE1F88F7E095089515
:100EF0000E947F076894B1110C94740808950E94B1
:100F0000590888F09F5798F0B92F9927B751B0F03A
:100F1000E1F0660F771F881F991F1AF0BA95C9F77D
:100F200014C0B13091F00E947308B1E008950C94A0
:100F30007308672F782F8827B85F39F0B93FCCF353
:100F4000869577956795B395D9F73EF490958095FA
:100F5000709561957F4F8F4F9F4F0895E89409C01A
:100F600097FB3EF490958095709561957F4F8F4FDC
:100F70009F4F9923A9F0F92F96E9BB279395F695F2
:100F8000879577956795B795F111F8CFFAF4BB0F70
:100F900011F460FF1BC06F5F7F4F8F4F9F4F16C0D4
:100FA000882311F096E911C0772321F09EE8872F5E
:100FB000762F05C0662371F096E8862F70E060E01A
:100FC0002AF09A95660F771F881FDAF7880F969593
:100FD000879597F90895990FBB0B550FAA0BE0E879
:100FE000FEEF16161706E807F90770F0121613063B
:100FF000E407F50760F0BA173CF049F4621773078D
:1010000084079507A7951BF4B901CA01BA2FB695B5
:1010100097950895990FBB0B550FAA0BE0E8FEEFCB
:1010200016161706E807F90770F012161306E407FC
:10103000F50760F0BA1754F031F426173707480760
:101040005907A7951BF4B901CA01BA2FB695979510
:10105000089597F99F6780E870E060E008959FEF3A
:1010600080EC089500240A9416161706180609063F
:10107000089500240A94121613061406050608950E
:10108000092E0394000C11F4882352F0BB0F40F496
:10109000BF2B11F460FF04C06F5F7F4F8F4F9F4FD6
:1010A000089557FD9058440F551F59F05F3F71F058
:1010B0004795880F97FB991F61F09F3F79F08795BF
:1010C0000895121613061406551FF2CF4695F1DF48
:1010D00008C0161617061806991FF1CF86957105D8
:1010E000610508940895E894BB2766277727CB010C
:1010F00097F90895AEE0B0E0E0E8F8E00C94290B31
:101100000D891E8986E08C831A8309838FEF9FE700
:101110009E838D83AE01475E5F4F6F89788DCE01D0
:1011200001960E949D082F813885020F131FF80138
:1011300010822E96E4E00C94450BABE0B0E0E3EABD
:10114000F8E00C941B0B7C013B018A01FC01178227
:101150001682838181FFC8C1CE0101965C01F7012F
:101160009381F30193FD859193FF81913F01882342
:1011700009F453C1853239F493FD859193FF819130
:101180003F01853229F4B70190E00E948D0AE7CF34
:10119000912C212C312CFFE1F31538F08B3211F119
:1011A00090F4803209F1833229F137FC3CC020ED04
:1011B000280F2A3050F536FE20C08AE0989E200D78
:1011C0001124922E06C08D3291F0803371F768940D
:1011D00030F8F30193FD859193FF81913F018111D7
:1011E000DACF21C0689431F8689432F8F2CF68946D
:1011F00033F8EFCF689434F8ECCFEAE02E9E200D60
:101200001124222E689435F8E4CF8E3229F436FC6E
:1012100004C1689436F8DDCF8C3619F4689437F839
:10122000D8CF8836B1F2982F9F7D95549330E0F057
:101230008336A1F18337C1F1833509F063C02801FA
:10124000F2E04F0E511CF801C080D180692D70E092
:1012500036FC02C06FEF7FEFC6010E94770A4C0197
:10126000689437F882010AC00C5F1F4FFFE3F983CF
:1012700088248394912C6501E89437F833FE2DC0BF
:10128000522C8114910471F5552009F468CFB701EF
:1012900080E290E00E948D0A5A94F6CFF801808196
:1012A00089830E5F1F4FE4CF2801F2E04F0E511CDF
:1012B000F801C080D180692D70E036FC02C06FEF6C
:1012C0007FEFC6010E94820A4C018201D5CFB7018F
:1012D00080E290E00E948D0A2A942814190409F0F3
:1012E000B0F7CECFF60137FC859137FE81916F01C3
:1012F000B70190E00E948D0A51105A94F1E08F1AC4
:101300009108BFCF843619F0893609F077C0F8010B
:1013100037FE6BC060817181828193810C5F1F4FAA
:10132000F32DFF763F2E97FF09C09095809570951D
:1013300061957F4F8F4F9F4F689437F82AE030E0D8
:10134000A5010E94BD0AC82ECA188C2C432C36FE5B
:101350000CC0E89440F8C91440F434FE05C032FCD7
:1013600003C0F32DFE7E4F2E892C44FE95C0FE0156
:10137000EC0DF11D8081803309F087C0242D297E7A
:10138000422E842D8870582E43FC95C040FE8FC09D
:101390009C2C821418F42C0C922C981844FE91C0AA
:1013A000B70180E390E00E948D0A42FE09C088E701
:1013B00090E041FE02C088E590E0B7010E948D0AEE
:1013C000C91408F48AC0CA94D12C9FEFC91AD90A4B
:1013D000CA0CDB1CF60182916F01B70190E00E94FC
:1013E0008D0AAC14BD04B1F74FCF60817181072E17
:1013F000000C880B990B0E5F1F4F92CFD32CE894F3
:10140000D4F82AE030E0853739F1232D297FD22E18
:101410008F3601F148F48835A9F0F701868197816C
:101420002B96E2E10C94370B803749F08837A9F707
:10143000D4FE02C06894D2F820E130E00DC0689478
:10144000D4F8F6CF34FE03C0822F8660D82E20E178
:1014500032E002C028E030E0F801D7FE0FC0608122
:101460007181828193810C5F1F4FA5010E94BD0A8B
:10147000C82ECA183D2CE89437F867CF6081718177
:1014800090E080E00E5F1F4FF0CF42FC02C08394DB
:1014900078CF8394839475CF842D867809F471CFA7
:1014A000F6CFB70180E290E00E948D0A8394821407
:1014B000C0F3512C73CF522C5818821408F46ECFFD
:1014C000F8CF842D867809F47BCF8BE241FE80E251
:1014D00047FC8DE2B70190E071CFB70180E390E067
:1014E0000E948D0A9A946CCF8FEF9FEF99CFFC01E9
:1014F0000590615070400110D8F7809590958E0F3F
:101500009F1F0895FC016150704001900110D8F7B1
:10151000809590958E0F9F1F08950F931F93CF93E3
:10152000DF93182F092FEB018B8181FD09C01FEF7D
:101530000FEF812F902FDF91CF911F910F91089581
:1015400082FF14C02E813F818C819D81281739072D
:101550003CF4E881F981CF01019699838883108357
:101560008E819F8101969F838E83E3CFE885F985E5
:10157000812F0995892BA1F3DACFFA01AA27283008
:1015800051F1203181F1E8946F936E7F6E5F7F4F50
:101590008F4F9F4FAF4FB1E03ED0B4E03CD0670FCC
:1015A000781F891F9A1FA11D680F791F8A1F911D1F
:1015B000A11D6A0F711D811D911DA11D20D009F46F
:1015C00068943F912AE0269F11243019305D3193B1
:1015D000DEF6CF010895462F4770405D4193B3E09A
:1015E0000FD0C9F7F6CF462F4F70405D4A3318F041
:1015F000495D31FD4052419302D0A9F7EACFB4E0F2
:10160000A6959795879577956795BA95C9F70097A9
:101610006105710508959B01AC010A2E069457954A
:10162000479537952795BA95C9F7620F731F841FA1
:10163000951FA01D08952F923F924F925F926F9237
:101640007F928F929F92AF92BF92CF92DF92EF9252
:10165000FF920F931F93CF93DF93CDB7DEB7CA1BD3
:10166000DB0B0FB6F894DEBF0FBECDBF09942A88FE
:10167000398848885F846E847D848C849B84AA84A6
:10168000B984C884DF80EE80FD800C811B81AA8133
:10169000B981CE0FD11D0FB6F894DEBF0FBECDBFFE
:0816A000ED010895F894FFCF5D
:1016A8003CC800F40100000A43616C69627261740D
:1016B800696F6E20446174613A200A005B432575A6
:1016C8005D2025580A004352433A2000476F6F6453
:1016D8000A00204261640A004261747465727920CC
:1016E800566F6C746167653A2025752E25312E7505
:1016F800560A0044657074683A20256C6920636D49
:101708000A00436F6E74726F6C206C6F6F70207676
:1017180061726961626C65733A0A20206B703A25C0
:10172800750A20206B693A25750A20206B643A25D2
:10173800750A006B703D006B693D006B643D00539A
:101748006574706F696E743D00506F736974696F6A
:101758006E3D0073746F700A0073746172740A00CE
:10176800536574206D6964706F696E74205B3530E1
:061778002C37305D00007B
:00000001FF
